{
  "abi": [
    {
      "inputs": [],
      "stateMutability": "nonpayable",
      "type": "constructor"
    },
    {
      "inputs": [],
      "name": "dupa",
      "outputs": [
        {
          "internalType": "uint256",
          "name": "",
          "type": "uint256"
        }
      ],
      "stateMutability": "view",
      "type": "function"
    },
    {
      "inputs": [],
      "name": "test",
      "outputs": [],
      "stateMutability": "nonpayable",
      "type": "function"
    }
  ],
  "evm": {
    "bytecode": {
      "linkReferences": {},
      "object": "608060405234801561001057600080fd5b5061018b806100206000396000f3fe608060405234801561001057600080fd5b50600436106100365760003560e01c806397bb705a1461003b578063f8a8fd6d14610059575b600080fd5b610043610063565b60405161005091906100bd565b60405180910390f35b610061610069565b005b60005481565b6040517f08c379a000000000000000000000000000000000000000000000000000000000815260040161009b90610135565b60405180910390fd5b6000819050919050565b6100b7816100a4565b82525050565b60006020820190506100d260008301846100ae565b92915050565b600082825260208201905092915050565b7f4572726f7220696e20546573742e736f6c000000000000000000000000000000600082015250565b600061011f6011836100d8565b915061012a826100e9565b602082019050919050565b6000602082019050818103600083015261014e81610112565b905091905056fea264697066735822122013b77c6799ef861cfde93526f40390647894afba37006aec715bbb51e89d3c7064736f6c634300080f0033",
      "opcodes": "PUSH1 0x80 PUSH1 0x40 MSTORE CALLVALUE DUP1 ISZERO PUSH2 0x10 JUMPI PUSH1 0x0 DUP1 REVERT JUMPDEST POP PUSH2 0x18B DUP1 PUSH2 0x20 PUSH1 0x0 CODECOPY PUSH1 0x0 RETURN INVALID PUSH1 0x80 PUSH1 0x40 MSTORE CALLVALUE DUP1 ISZERO PUSH2 0x10 JUMPI PUSH1 0x0 DUP1 REVERT JUMPDEST POP PUSH1 0x4 CALLDATASIZE LT PUSH2 0x36 JUMPI PUSH1 0x0 CALLDATALOAD PUSH1 0xE0 SHR DUP1 PUSH4 0x97BB705A EQ PUSH2 0x3B JUMPI DUP1 PUSH4 0xF8A8FD6D EQ PUSH2 0x59 JUMPI JUMPDEST PUSH1 0x0 DUP1 REVERT JUMPDEST PUSH2 0x43 PUSH2 0x63 JUMP JUMPDEST PUSH1 0x40 MLOAD PUSH2 0x50 SWAP2 SWAP1 PUSH2 0xBD JUMP JUMPDEST PUSH1 0x40 MLOAD DUP1 SWAP2 SUB SWAP1 RETURN JUMPDEST PUSH2 0x61 PUSH2 0x69 JUMP JUMPDEST STOP JUMPDEST PUSH1 0x0 SLOAD DUP2 JUMP JUMPDEST PUSH1 0x40 MLOAD PUSH32 0x8C379A000000000000000000000000000000000000000000000000000000000 DUP2 MSTORE PUSH1 0x4 ADD PUSH2 0x9B SWAP1 PUSH2 0x135 JUMP JUMPDEST PUSH1 0x40 MLOAD DUP1 SWAP2 SUB SWAP1 REVERT JUMPDEST PUSH1 0x0 DUP2 SWAP1 POP SWAP2 SWAP1 POP JUMP JUMPDEST PUSH2 0xB7 DUP2 PUSH2 0xA4 JUMP JUMPDEST DUP3 MSTORE POP POP JUMP JUMPDEST PUSH1 0x0 PUSH1 0x20 DUP3 ADD SWAP1 POP PUSH2 0xD2 PUSH1 0x0 DUP4 ADD DUP5 PUSH2 0xAE JUMP JUMPDEST SWAP3 SWAP2 POP POP JUMP JUMPDEST PUSH1 0x0 DUP3 DUP3 MSTORE PUSH1 0x20 DUP3 ADD SWAP1 POP SWAP3 SWAP2 POP POP JUMP JUMPDEST PUSH32 0x4572726F7220696E20546573742E736F6C000000000000000000000000000000 PUSH1 0x0 DUP3 ADD MSTORE POP JUMP JUMPDEST PUSH1 0x0 PUSH2 0x11F PUSH1 0x11 DUP4 PUSH2 0xD8 JUMP JUMPDEST SWAP2 POP PUSH2 0x12A DUP3 PUSH2 0xE9 JUMP JUMPDEST PUSH1 0x20 DUP3 ADD SWAP1 POP SWAP2 SWAP1 POP JUMP JUMPDEST PUSH1 0x0 PUSH1 0x20 DUP3 ADD SWAP1 POP DUP2 DUP2 SUB PUSH1 0x0 DUP4 ADD MSTORE PUSH2 0x14E DUP2 PUSH2 0x112 JUMP JUMPDEST SWAP1 POP SWAP2 SWAP1 POP JUMP INVALID LOG2 PUSH5 0x6970667358 0x22 SLT KECCAK256 SGT 0xB7 PUSH29 0x6799EF861CFDE93526F40390647894AFBA37006AEC715BBB51E89D3C70 PUSH5 0x736F6C6343 STOP ADDMOD 0xF STOP CALLER "
    }
  }
}